{
    "_format": "hh-sol-artifact-1",
    "contractName": "News",
    "sourceName": "contracts/News.sol",
    "abi": [
        {
            "anonymous": false,
            "inputs": [
                {
                    "indexed": false,
                    "internalType": "address",
                    "name": "uploader_address",
                    "type": "address"
                },
                {
                    "indexed": false,
                    "internalType": "string",
                    "name": "title",
                    "type": "string"
                },
                {
                    "indexed": false,
                    "internalType": "string",
                    "name": "description",
                    "type": "string"
                },
                {
                    "indexed": false,
                    "internalType": "string",
                    "name": "publisher",
                    "type": "string"
                },
                {
                    "indexed": false,
                    "internalType": "string",
                    "name": "date_published",
                    "type": "string"
                },
                {
                    "indexed": false,
                    "internalType": "uint256",
                    "name": "timestamp",
                    "type": "uint256"
                },
                {
                    "indexed": false,
                    "internalType": "uint256",
                    "name": "number",
                    "type": "uint256"
                },
                {
                    "indexed": false,
                    "internalType": "bytes",
                    "name": "data",
                    "type": "bytes"
                }
            ],
            "name": "AddNews",
            "type": "event"
        },
        {
            "inputs": [
                {
                    "internalType": "string",
                    "name": "_title",
                    "type": "string"
                },
                {
                    "internalType": "string",
                    "name": "_description",
                    "type": "string"
                },
                {
                    "internalType": "string",
                    "name": "_publisher",
                    "type": "string"
                },
                {
                    "internalType": "string",
                    "name": "date_published",
                    "type": "string"
                }
            ],
            "name": "addToBlockchain",
            "outputs": [],
            "stateMutability": "nonpayable",
            "type": "function"
        },
        {
            "inputs": [],
            "name": "getAllNews",
            "outputs": [
                {
                    "components": [
                        {
                            "internalType": "address",
                            "name": "uploader_address",
                            "type": "address"
                        },
                        {
                            "internalType": "string",
                            "name": "title",
                            "type": "string"
                        },
                        {
                            "internalType": "string",
                            "name": "description",
                            "type": "string"
                        },
                        {
                            "internalType": "string",
                            "name": "publisher",
                            "type": "string"
                        },
                        {
                            "internalType": "string",
                            "name": "date_published",
                            "type": "string"
                        },
                        {
                            "internalType": "uint256",
                            "name": "block_timestamp",
                            "type": "uint256"
                        },
                        {
                            "internalType": "uint256",
                            "name": "block_number",
                            "type": "uint256"
                        },
                        {
                            "internalType": "bytes",
                            "name": "block_data",
                            "type": "bytes"
                        }
                    ],
                    "internalType": "struct News.NewsInfo[]",
                    "name": "",
                    "type": "tuple[]"
                }
            ],
            "stateMutability": "view",
            "type": "function"
        },
        {
            "inputs": [],
            "name": "getNewsCount",
            "outputs": [
                {
                    "internalType": "uint256",
                    "name": "",
                    "type": "uint256"
                }
            ],
            "stateMutability": "view",
            "type": "function"
        }
    ],
    "bytecode": "0x608060405234801561001057600080fd5b50610ecb806100206000396000f3fe608060405234801561001057600080fd5b50600436106100415760003560e01c8063184c6aa3146100465780633a6e9b6714610064578063f584ecd114610080575b600080fd5b61004e61009e565b60405161005b9190610be2565b60405180910390f35b61007e600480360381019061007991906107f1565b6100a7565b005b6100886102bc565b6040516100959190610bc0565b60405180910390f35b60008054905090565b60016000808282546100b99190610cf1565b9250508190555060016040518061010001604052803373ffffffffffffffffffffffffffffffffffffffff1681526020018681526020018581526020018481526020018381526020014281526020014381526020016000368080601f016020809104026020016040519081016040528093929190818152602001838380828437600081840152601f19601f82011690508083019250505050505050815250908060018154018082558091505060019003906000526020600020906008020160009091909190915060008201518160000160006101000a81548173ffffffffffffffffffffffffffffffffffffffff021916908373ffffffffffffffffffffffffffffffffffffffff16021790555060208201518160010190805190602001906101e3929190610660565b506040820151816002019080519060200190610200929190610660565b50606082015181600301908051906020019061021d929190610660565b50608082015181600401908051906020019061023a929190610660565b5060a0820151816005015560c0820151816006015560e082015181600701908051906020019061026b9291906106e6565b5050507ffde2818566f927891a2ac575e02c2f6a79e03f7fd1e58aeca5cce60f9c1f5e04338585858542436000366040516102ae99989796959493929190610b1d565b60405180910390a150505050565b60606001805480602002602001604051908101604052809291908181526020016000905b828210156106575783829060005260206000209060080201604051806101000160405290816000820160009054906101000a900473ffffffffffffffffffffffffffffffffffffffff1673ffffffffffffffffffffffffffffffffffffffff1673ffffffffffffffffffffffffffffffffffffffff16815260200160018201805461036a90610dc5565b80601f016020809104026020016040519081016040528092919081815260200182805461039690610dc5565b80156103e35780601f106103b8576101008083540402835291602001916103e3565b820191906000526020600020905b8154815290600101906020018083116103c657829003601f168201915b505050505081526020016002820180546103fc90610dc5565b80601f016020809104026020016040519081016040528092919081815260200182805461042890610dc5565b80156104755780601f1061044a57610100808354040283529160200191610475565b820191906000526020600020905b81548152906001019060200180831161045857829003601f168201915b5050505050815260200160038201805461048e90610dc5565b80601f01602080910402602001604051908101604052809291908181526020018280546104ba90610dc5565b80156105075780601f106104dc57610100808354040283529160200191610507565b820191906000526020600020905b8154815290600101906020018083116104ea57829003601f168201915b5050505050815260200160048201805461052090610dc5565b80601f016020809104026020016040519081016040528092919081815260200182805461054c90610dc5565b80156105995780601f1061056e57610100808354040283529160200191610599565b820191906000526020600020905b81548152906001019060200180831161057c57829003601f168201915b5050505050815260200160058201548152602001600682015481526020016007820180546105c690610dc5565b80601f01602080910402602001604051908101604052809291908181526020018280546105f290610dc5565b801561063f5780601f106106145761010080835404028352916020019161063f565b820191906000526020600020905b81548152906001019060200180831161062257829003601f168201915b505050505081525050815260200190600101906102e0565b50505050905090565b82805461066c90610dc5565b90600052602060002090601f01602090048101928261068e57600085556106d5565b82601f106106a757805160ff19168380011785556106d5565b828001600101855582156106d5579182015b828111156106d45782518255916020019190600101906106b9565b5b5090506106e2919061076c565b5090565b8280546106f290610dc5565b90600052602060002090601f016020900481019282610714576000855561075b565b82601f1061072d57805160ff191683800117855561075b565b8280016001018555821561075b579182015b8281111561075a57825182559160200191906001019061073f565b5b509050610768919061076c565b5090565b5b8082111561078557600081600090555060010161076d565b5090565b600061079c61079784610c2e565b610bfd565b9050828152602081018484840111156107b457600080fd5b6107bf848285610d83565b509392505050565b600082601f8301126107d857600080fd5b81356107e8848260208601610789565b91505092915050565b6000806000806080858703121561080757600080fd5b600085013567ffffffffffffffff81111561082157600080fd5b61082d878288016107c7565b945050602085013567ffffffffffffffff81111561084a57600080fd5b610856878288016107c7565b935050604085013567ffffffffffffffff81111561087357600080fd5b61087f878288016107c7565b925050606085013567ffffffffffffffff81111561089c57600080fd5b6108a8878288016107c7565b91505092959194509250565b60006108c08383610a33565b905092915050565b6108d181610d47565b82525050565b6108e081610d47565b82525050565b60006108f182610c6e565b6108fb8185610c9c565b93508360208202850161090d85610c5e565b8060005b85811015610949578484038952815161092a85826108b4565b945061093583610c8f565b925060208a01995050600181019050610911565b50829750879550505050505092915050565b60006109678385610cbe565b9350610974838584610d83565b61097d83610e84565b840190509392505050565b600061099382610c79565b61099d8185610cad565b93506109ad818560208601610d92565b6109b681610e84565b840191505092915050565b60006109cc82610c84565b6109d68185610ccf565b93506109e6818560208601610d92565b6109ef81610e84565b840191505092915050565b6000610a0582610c84565b610a0f8185610ce0565b9350610a1f818560208601610d92565b610a2881610e84565b840191505092915050565b600061010083016000830151610a4c60008601826108c8565b5060208301518482036020860152610a6482826109c1565b91505060408301518482036040860152610a7e82826109c1565b91505060608301518482036060860152610a9882826109c1565b91505060808301518482036080860152610ab282826109c1565b91505060a0830151610ac760a0860182610aff565b5060c0830151610ada60c0860182610aff565b5060e083015184820360e0860152610af28282610988565b9150508091505092915050565b610b0881610d79565b82525050565b610b1781610d79565b82525050565b600061010082019050610b33600083018c6108d7565b8181036020830152610b45818b6109fa565b90508181036040830152610b59818a6109fa565b90508181036060830152610b6d81896109fa565b90508181036080830152610b8181886109fa565b9050610b9060a0830187610b0e565b610b9d60c0830186610b0e565b81810360e0830152610bb081848661095b565b90509a9950505050505050505050565b60006020820190508181036000830152610bda81846108e6565b905092915050565b6000602082019050610bf76000830184610b0e565b92915050565b6000604051905081810181811067ffffffffffffffff82111715610c2457610c23610e55565b5b8060405250919050565b600067ffffffffffffffff821115610c4957610c48610e55565b5b601f19601f8301169050602081019050919050565b6000819050602082019050919050565b600081519050919050565b600081519050919050565b600081519050919050565b6000602082019050919050565b600082825260208201905092915050565b600082825260208201905092915050565b600082825260208201905092915050565b600082825260208201905092915050565b600082825260208201905092915050565b6000610cfc82610d79565b9150610d0783610d79565b9250827fffffffffffffffffffffffffffffffffffffffffffffffffffffffffffffffff03821115610d3c57610d3b610df7565b5b828201905092915050565b6000610d5282610d59565b9050919050565b600073ffffffffffffffffffffffffffffffffffffffff82169050919050565b6000819050919050565b82818337600083830152505050565b60005b83811015610db0578082015181840152602081019050610d95565b83811115610dbf576000848401525b50505050565b60006002820490506001821680610ddd57607f821691505b60208210811415610df157610df0610e26565b5b50919050565b7f4e487b7100000000000000000000000000000000000000000000000000000000600052601160045260246000fd5b7f4e487b7100000000000000000000000000000000000000000000000000000000600052602260045260246000fd5b7f4e487b7100000000000000000000000000000000000000000000000000000000600052604160045260246000fd5b6000601f19601f830116905091905056fea2646970667358221220e6288d9317835f8784aee96090a99bac00c935a3d76de163daa1ed46db9c139e64736f6c63430008000033",
    "linkReferences": {},
    "deployedLinkReferences": {}
}